:020000040800F2
:100000004842002015250008312500083525000844
:10001000392500083D2500084125000800000000A2
:1000200000000000000000000000000009110008AE
:100030004525000800000000B1100008492500080F
:100040004D250008512500085525000859250008B0
:100050005D25000861250008652500086925000860
:100060006D25000871250008752500087925000810
:100070007D250008812500088525000889250008C0
:100080008D25000891250008952500089925000870
:100090009D250008A1250008A5250008A925000820
:1000A000AD250008B1250008B5250008B9250008D0
:1000B000BD250008C1250008C5250008C925000880
:1000C000CD250008D1250008D5250008D925000830
:1000D000DD250008E1250008E5250008E9250008E0
:1000E000ED250008F1250008F5250008F925000890
:1000F000FD2500080126000805260008092600083D
:100100000D260008112600081526000819260008EB
:100110001D2600082126000825260008292600089B
:100120002D2600083126000835260008392600084B
:100130003D260008412600084526000849260008FB
:100140004D260008512600085526000859260008AB
:100150005D2600086126000865260008692600085B
:100160006D2600087126000875260008792600080B
:100170007D26000881260008852600080000000072
:10018000892600088D2600082DE9F84F04468B4685
:10019000914698460A9EDDF82CA00C9F200007D1BE
:1001A000502080F31188BFF34F8FBFF36F8FFEE7AE
:1001B000082E07D3502080F31188BFF34F8FBFF371
:1001C0006F8FFEE727B94FEA890000F007FC07466A
:1001D000002F00F08D805C2000F000FC0546002D13
:1001E00000F083802F63A5224FEA8901384600F092
:1001F00065FC286B102100EB8900001FC008C700B8
:1002000028469BF8002080F834201BF8012B12B1FF
:10021000401C491EF5D1002085F84300EE62EE64D3
:100220002865281D0021016105F1180000210161E8
:100230002D61C6F10800A8616D620020686585F82F
:10024000580042462146384600F066FC2860BAF164
:10025000000F18BFCAF8005000F0D6FCDFF8344693
:10026000E06C401CE064A06A002844D1A562E06C08
:10027000012847D1DFF82076384600F037FD07F136
:10028000140000F033FD07F1280000F02FFD07F106
:100290003C0000F02BFD07F1500000F027FD07F1B6
:1002A000640000F023FD07F1780000F01FFD07F166
:1002B0008C0000F01BFD04F1740000F017FD04F247
:1002C0008808404600F012FD204600F00FFD04F1C2
:1002D000140000F00BFD04F1380000F007FD04F2FB
:1002E0007400E062C4F830800CE0384600F0CBFBCC
:1002F0004FF0FF382DE0A06D20B9A06AC06A864299
:1003000028BFA562A06E0121401CA0666864606DD4
:10031000EA6A914008436065E86A291D00EB8002A3
:10032000DFF8740500EB820000F0EDFC4FF00108EF
:1003300000F084FCA06D60B1A06AC06AB04208D22F
:10034000DFF884064FF080510160BFF34F8FBFF399
:100350006F8F4046BDE8F28F38B538B9502080F332
:100360001188BFF34F8FBFF36F8FFEE739B950206D
:1003700080F31188BFF34F8FBFF36F8FFEE7DFF875
:100380001445226F3AB1502080F31188BFF34F8F8C
:10039000BFF36F8FFEE7226F521C2267226D036846
:1003A000CD189A4203D29D4203D3056013E09D42CB
:1003B00001D3AA42F9D20560A06A001D00F0C9FC71
:1003C00030B9606DA26A0121D26A914088436065AC
:1003D000284600F02CFA00F044F840B9DFF8E805B0
:1003E0004FF080510160BFF34F8FBFF36F8F31BD6E
:1003F00000B585B00020039002900190009000238A
:1004000080220FF2D0510FF2BD30FFF7BDFE012860
:1004100008BF00F0B1FC012813D1502080F31188EF
:10042000BFF34F8FBFF36F8FDFF8A4050121816504
:100430000021016505B05DF804EB00F094BB05B048
:1004400000BD0028FBD1502080F31188BFF34F8FEF
:10045000BFF36F8FFEE7DFF87805016F491C016776
:10046000704770B5DFF82C540024286F38B950203D
:1004700080F31188BFF34F8FBFF36F8FFEE700F05B
:10048000C3FB286F401E2867286F002840D1E86C06
:1004900000BB3DE0E868C66806F1180000F059FCB2
:1004A000301D00F056FC686DF26A0121914008434E
:1004B0006865F06A311D00EB8002DFF8100500EB83
:1004C000820000F020FCF06AA96AC96A884224BF51
:1004D0000120286628680028DCD1E86D40B90AE0D0
:1004E00000F01BF808B101202866E86D401EE865A1
:1004F000E86D0028F4D1286E012809D1DFF8C8047E
:100500004FF0805101240160BFF34F8FBFF36F8F15
:1005100050E1DFF8BC04006D7047F8B5DFF87453A4
:100520000024286F002854D1286D401C28652E6DAA
:100530009EB9E86A006838B1502080F31188BFF393
:100540004F8FBFF36F8FFEE7E86A296BE96228637C
:10055000686E401C686600F083F9E86E86422CD312
:100560001EE0381D00F0F5FBB86A18B107F118005D
:1005700000F0EFFB686DFA6A01219140084368655D
:10058000F86A391D00EB8002DFF8400400EB8200BE
:1005900000F0B9FBF86AA96AC96A884228BF012439
:1005A000E86A006810B94FF0FF3005E0E86AC068FB
:1005B000C76878688642D4D2E866A86AC06A00EB49
:1005C00080018800DFF804144058022804D3012475
:1005D00002E0E86D401CE865286E00B10124204669
:1005E000F2BDDFF8B002016F01B1E8E00166416DD4
:1005F000B1FA81F1C1F11F0101EB81029100DFF835
:1006000098228B583BB9502080F31188BFF34F8F4D
:10061000BFF36F8FFEE789184A6801F1080352683B
:100620004A609A4204BF52684A604968C968816258
:10063000704738B50C4638B9502080F31188BFF3A5
:100640004F8FBFF36F8FFEE7DFF88453A96A18312D
:1006500000F065FBA86A001D00F07BFB30B9686DF7
:10066000AA6A0121D26A91408843686514F1010F9A
:1006700000D100E007E0A86A011D05F13800BDE8DF
:10068000344000F040BB286D2018BDE83240CEE079
:1006900038B50C4638B9502080F31188BFF34F8F1E
:1006A000BFF36F8FFEE7DFF82853A96A183100F017
:1006B0002AFBA86A001D00F04CFB30B9686DAA6ADD
:1006C0000121D26A914088436865DCE738B5C0688B
:1006D000C4683CB9502080F31188BFF34F8FBFF33B
:1006E0006F8FFEE704F1180000F033FB694D286FAF
:1006F00088B9201D00F02DFB686DE26A0121914050
:1007000008436865E06A211D00EB8002DFF8BC0247
:1007100000EB820002E004F11801284600F0F3FA31
:10072000A86AE16AC06A884202D20120286632BD06
:10073000002032BD38B9502080F31188BFF34F8FAD
:10074000BFF36F8FFEE7DFF888124A6E0260096D13
:100750004160704770B504460D463CB9502080F3A7
:100760001188BFF34F8FBFF36F8FFEE73DB9502065
:1007700080F31188BFF34F8FBFF36F8FFEE700F058
:1007800043FA4448016D2A6812F1010F0FD06368E3
:10079000406E2668B04201D099420AD2C81A9042EF
:1007A00007D2501A181828602046FFF7C3FF00240C
:1007B00000E0012400F042FA204670BD35480121D6
:1007C000016670472DE9F0417F4C4FF08055DFF80E
:1007D000C880304F1EE0386F401C38677869461E6D
:1007E000B641F60FFFF73DFEA6B900F00DFA386AE4
:1007F000C668301D00F0ADFAF86C401EF864786BE6
:10080000401E786300F01AFA306B00F03CF9304675
:1008100000F039F9786B0028DDD1D8F80000022803
:10082000F8D32560BFF34F8FBFF36F8FF2E738B572
:10083000DFF89C510446A86A4460286D8442A86A87
:1008400005D2011D286BBDE8344000F068BA011DD7
:10085000E86A00F064FAE86E844238BFEC6631BDA5
:100860000C48C16A096811B94FF0FF3103E0C16A51
:10087000C968C9684968C1667047DFF85401816D6D
:1008800009B901207047006F08B9022070470020A5
:1008900070470000183C0020E43C002070B50400C4
:1008A0003CD0DFF82C51E06AA96AC96A884235D287
:1008B000A069002804D4A86AC06AC0F10800A06139
:1008C000E16ADFF80861606901EB810206EB8201F1
:1008D000884220D1201D00F03CFA58B9E06A00EBB4
:1008E00080018800805928B9686DE26A0121914031
:1008F00088436865A86A0122C06AE062696D824027
:100900001143696500EB8002211D06EB8200BDE802
:10091000704000F0F8B9A86AC06AE06270BD70B5B6
:1009200004460020002C42D0DFF8A450A96A8C4273
:1009300007D0502080F31188BFF34F8FBFF36F8F24
:10094000FEE7216D39B9502080F31188BFF34F8F36
:10095000BFF36F8FFEE7491E2165E26AE36C9A429E
:1009600025D021BBDFF86460201D00F0F2F958B9F2
:10097000E06A00EB80018800805928B9686DE26A5E
:100980000121914088436865E06C0122E062C0F17A
:100990000800A061E06A696D82401143696500EB5F
:1009A0008002211D06EB820000F0ADF9012070BD30
:1009B000DFF81C00816A19B1816A0A6D521C0A6550
:1009C000806A70470000000004ED00E0E43C002075
:1009D000183C002049444C4500000000F8B504468E
:1009E0000025FFF738FD3448416981B900F118014D
:1009F0000831C908C90043F6F83201604560C26099
:100A000085604A6000F108020A6001214161B4B3C7
:100A1000083414F0070104D004F1080104F00702BF
:100A20008C1A64B343F6F8318C4228D2024601682E
:100A300001E00A4619464B68A34202D20B68002B1C
:100A4000F7D100F10803994219D0136803F10805A2
:100A50000B6813604A68121B112A0CD363185A6082
:100A60004C605A68044600E034462668776897422E
:100A7000FAD31E60236002694968511A0161FFF7C9
:100A8000F0FC2846F2BD70B5A8B1A0F10804FFF74C
:100A9000E2FC094A6068134600E02B461D686E6858
:100AA0008642FAD325601C60116940181061BDE8C8
:100AB0007040FFF7D6BC70BD0000002062F30F222B
:100AC00062F31F4200B500BF1300964694461039EA
:100AD00028BFA0E80C50FAD85FEA417C28BF0CC0C0
:100AE00048BF40F8042BC90728BF20F8022B48BF95
:100AF00000F8012B00BD50F8041B61B150F8042B25
:100B0000D30744BFA9F101039A18002342F8043B1C
:100B1000091FFAD1EFE770474FF0807340F8043DAA
:100B200040F8041D0FF2150140F8041D40F8142D83
:100B30006FF0020140F8041D20387047604840689B
:100B400010F1010F07D0502080F31188BFF34F8FB1
:100B5000BFF36F8FFEE7502080F31188BFF34F8FF4
:100B6000BFF36F8FFEE71CB55648574A01689142A4
:100B700007D1502080F31188BFF34F8FBFF36F8FE1
:100B8000FEE70168514A914207D1502080F3118855
:100B9000BFF34F8FBFF36F8FFEE74D49484C0A7884
:100BA0000192FF220A700A788DF800209DF800203B
:100BB00002F050022270072205E09DF80030521E1C
:100BC0005B008DF800309DF800301B06F5D4120252
:100BD00002F4E062A260019A0A70016A41F47001B5
:100BE0000162016A41F07041016200F039F80020B1
:100BF000606000F0A3FA3748016841F040410160AD
:100C000000F090FA002016BD502080F31188BFF349
:100C10004F8FBFF36F8F2A484168491C41600129FB
:100C20000BD12D480068C0B238B1502080F3118834
:100C3000BFF34F8FBFF36F8FFEE7704720484168C7
:100C400039B9502080F31188BFF34F8FBFF36F8FF6
:100C5000FEE7491E416004BF002080F31188704701
:100C60001E494FF47A7209681D48B1FBF2F1491E22
:100C70004160072101607047EFF305810846104984
:100C800010280CD3174A825C0B789A4207D2502165
:100C900081F31188BFF34F8FBFF36F8FFEE7124AC6
:100CA0008968126802F4E062914207D2502181F310
:100CB0001188BFF34F8FBFF36F8FFEE770470000BF
:100CC000D83C002000ED00E071C20F4170C20F411E
:100CD00000E400E034EF00E004ED00E0C43C00205C
:100CE00010E000E0F0E300E00CED00E000F10801AE
:100CF00041604FF0FF31816000F10801C160016186
:100D000000210160704742684A6093688B60936875
:100D10005960916008610168491C0160704730B4F6
:100D20000A6812F1010F08BF036907D000F1080338
:100D300000E023465C682568AA42FAD25A684A60F5
:100D400091608B60596008610168491C016030BC8A
:100D500070474268836801699360826843685360A2
:100D60004A68824204BF82684A60002202610868C1
:100D7000401E08607047000010B584B0FFF744FFC4
:100D8000DFF81443A06800BB04F11000FFF7AEFFCA
:100D900004F12400FFF7AAFF04F11000206004F220
:100DA0002400606000220C210A2000F017FAA060E5
:100DB00038B9502080F31188BFF34F8FBFF36F8F86
:100DC000FEE70FF2E42100F070FCFFF737FFA068A8
:100DD00078B100200390029001900220009000233F
:100DE0004FF480720FF2B8210FF2E100FFF7CCF957
:100DF00038B9502080F31188BFF34F8FBFF36F8F46
:100E0000FEE704B010BDF0B5A34F83B004461D4605
:100E1000089E0023B868D8B1009101920294062977
:100E200011DAFFF72AFD022806D10023324600A975
:100E3000B86800F005FA0AE00023002200A9B868AB
:100E400000F0FEF903E02A4600A900F0A5FA0346E7
:100E5000184603B0F0BDF8B58F4E044630680D4615
:100E6000C068C768381DFFF774FFF86901280DD105
:100E7000B869001978603F6185420CD3B969281BB5
:100E800088420CD2391D7068FFF749FF3846796AED
:100E9000BDE8F4400847A54213D2A04211D3002078
:100EA00000900146002322463846FFF7ACFF002899
:100EB000ECD1502080F31188BFF34F8FBFF36F8FB9
:100EC000FEE7391D3068DFE7000000002DE9F84338
:100ED000DFF8C8814FF080596F4E03E0FFF7C1FA89
:100EE00000F06EF83068016811B90127002402E0B3
:100EF000C06800270468FFF7AEFA00A800F01DF8EC
:100F0000054600980028E9D147B9A54206D3FFF766
:100F1000A8FA29462046FFF79EFFE1E7611BB0686B
:100F200000F0F0FBFFF79DFA0028D9D1C8F8009037
:100F3000BFF34F8FBFF36F8FD2E72DE9F04182B03F
:100F40000446FFF7E6FA544E0546F06885420BD397
:100F500000202060F5602846BDE8F68178603F619A
:100F6000391D3068FFF7DBFE3068016811B3C068D7
:100F7000C768D0F80080381DFFF7EBFE3846796A65
:100F80008847F8690128EFD1B86940448045E5D326
:100F9000002000900146002342463846FFF733FF09
:100FA0000028E1D1502080F31188BFF34F8FBFF3A9
:100FB0006F8FFEE77168706031600120C9E7000043
:100FC00030B585B0344C02E02846FFF75CFD0023C5
:100FD000002201A9A06800F038FA002859D0019831
:100FE0000028F4D4039D686910B1281DFFF7B1FEF5
:100FF00004A8FFF7A2FF01990929E8D8DFE801F06A
:1010000007070706340507070634DDE7DFE702991F
:10101000AA6953186B602D61984207D3401A904219
:1010200008D2291D6068FFF77AFED0E788422BD2EC
:101030008B4229D32846696A8847E8690128C6D1C6
:10104000002000900298A96900230A181946284632
:10105000FFF7D9FE0028BAD1502080F31188BFF3E2
:101060004F8FBFF36F8FFEE70299A96139B9502006
:1010700080F31188BFF34F8FBFF36F8FFEE709181E
:1010800069602D618842CCD2291D2068FFF747FE98
:101090009DE705B030BD0000043E002004ED00E0F7
:1010A000546D722053766300546D7251000000003D
:1010B000EFF30980BFF36F8F244B1A681EF0100FF7
:1010C00008BF20ED108A20E9F04F106008B44FF0FF
:1010D000500080F31188BFF34F8FBFF36F8FFFF77E
:1010E00080FA4FF0000080F3118808BC1968086886
:1010F000B0E8F04F1EF0100F08BFB0EC108A80F37C
:101100000988BFF36F8F7047104B19680868B0E803
:10111000F04F80F30988BFF36F8F4FF0000080F32A
:10112000118870470A480068006880F3088862B632
:1011300061B6BFF34F8FBFF36F8F00DFDFF814008E
:10114000016841F47001016070470000403C0020DC
:1011500008ED00E088ED00E038B504460D463CB9E6
:10116000502080F31188BFF34F8FBFF36F8FFEE7DE
:10117000FFF74AFDE06B216C226801FB00206060F4
:101180000020A0632068A060E06B216C401E2268F4
:1011900001FB0020E0604FF0FF306064A0648DB977
:1011A0002069B8B104F11000FFF790FA012811D1BD
:1011B000DFF848054FF080510160BFF34F8FBFF358
:1011C0006F8F07E004F11000FFF790FD04F1240099
:1011D000FFF78CFDFFF732FD012032BDF8B5044664
:1011E0000D4616463CB9502080F31188BFF34F8F4F
:1011F000BFF36F8FFEE7002D0EBF002005FB04F04C
:10120000401C5430FFF7EAFB07000FD0002D0EBF43
:101210003F6007F254003860FC6307F23C046560ED
:1012200001213846FFF798FF26753FB9502080F31B
:101230001188BFF34F8FBFF36F8FFEE73846F2BDC3
:101240002DE9F44183B0044688461E4600273CB988
:10125000502080F31188BFF34F8FBFF36F8FFEE7ED
:10126000B8F1000F01D1206C88B9022E02D1E06BD9
:10127000012814D1FFF701FBF0B90398E0B1502029
:1012800080F31188BFF34F8FBFF36F8FFEE75020BD
:1012900080F31188BFF34F8FBFF36F8FFEE75020AD
:1012A00080F31188BFF34F8FBFF36F8FFEE72046A7
:1012B00000F0C9F9FFF7D5F8FFF7A6FCA06BE16BCA
:1012C000884201D3022E1BD132464146204600F00F
:1012D00070F9616A31B104F12400FFF7F7F90128D0
:1012E0000AD100E040B1DFF814044FF080510160F2
:1012F000BFF34F8FBFF36F8FFFF7A0FC01204AE0D1
:10130000039810B9FFF79AFC44E01FB900A8FFF753
:1013100011FA0127FFF792FCFFF79DF8FFF774FC25
:10132000606C10F1010F04BF00206064A06C10F12C
:10133000010F04BF0020A064FFF780FC03A900A8F0
:10134000FFF708FA08BBFFF75FFCA06BE16B884270
:101350000CBF01250025FFF771FC002DA7D00399D4
:1013600004F11000FFF765F9204600F06CF9FFF773
:1013700078F80028A0D1DFF884034FF08051016095
:10138000BFF34F8FBFF36F8F96E7204600F05BF9F6
:10139000FFF767F8002009E12DE9F04104460D460A
:1013A00016461F463CB9502080F31188BFF34F8F7B
:1013B000BFF36F8FFEE70DB9206C60BB022F02D127
:1013C000E06B01282FD1FFF757FCEFF31188502075
:1013D00080F31188BFF34F8FBFF36F8FA06BE16B6A
:1013E000884201D3022F2BD13A462946204600F0ED
:1013F000E0F8A06C10F1010F1DD1606AF0B104F1AA
:101400002400FFF763F9002818BF002E16D0012032
:101410003060012015E0502080F31188BFF34F8F1A
:10142000BFF36F8FFEE7502080F31188BFF34F8F1B
:10143000BFF36F8FFEE7A06C401CA064012000E0AA
:10144000002088F31188BDE8F0812DE9F44183B0D4
:1014500004460D46984600273CB9502080F3118879
:10146000BFF34F8FBFF36F8FFEE70DB9206C60B9EC
:10147000FFF703FAB0B90398A0B1502080F31188A8
:10148000BFF34F8FBFF36F8FFEE7502080F31188BB
:10149000BFF34F8FBFF36F8FFEE7204600F0D3F806
:1014A000FEF7DFFFFFF7B0FBA06B68B3E7682946E4
:1014B000204600F0B5F8B8F1000F10D1A06B401E27
:1014C000A063206810B9FFF773FA60602069B8B1B3
:1014D00004F11000FFF7FAF8012811D107E0E760E6
:1014E000606A68B104F12400FFF7F0F840B1DFF85A
:1014F0000C024FF080510160BFF34F8FBFF36F8F2D
:10150000FFF79CFB012051E0039810B9FFF796FB11
:101510004BE01FB900A8FFF70DF90127FFF78EFB7D
:10152000FEF799FFFFF770FB606C10F1010F04BF2D
:1015300000206064A06C10F1010F04BF0020A064C3
:10154000FFF77CFB03A900A8FFF704F940BBFFF7F6
:101550005BFBA06B461EB641F60FFFF76FFB002E3C
:101560009BD0206830B9FFF74FFB6068FFF796F912
:10157000FFF764FB039904F12400FFF75AF82046B3
:1015800000F061F8FEF76DFF00288BD1DFF86C01E9
:101590004FF080510160BFF34F8FBFF36F8F81E732
:1015A000204600F050F8FEF75CFF002004B0BDE8D4
:1015B000F08170B5044616460025226C42B92068B9
:1015C00048BB6068FFF7ABF905460020606022E089
:1015D00066B9A06800F0B4F8206CA1684018A0605B
:1015E0006168884217D32068A06014E0E06800F0CA
:1015F000A7F8206CE16840424118E16022689142FE
:1016000002D261684018E060022E04D1A06B10B1D4
:10161000A06B401EA063A06B401CA063284670BD59
:1016200010B40B46026C62B1C1685118C1604468C5
:10163000A14224BF0168C160C16810BC184600F017
:101640007FB810BC704738B50446FFF7DDFA09E0F3
:1016500004F12400FFF73AF808B1FFF7AFF8A06CE7
:10166000401EA064A06C012802DB606A0028EFD154
:101670004FF0FF35A564FFF7E1FAFFF7C5FA09E07F
:1016800004F11000FFF722F808B1FFF797F8606C3B
:10169000401E6064606C012802DB20690028EFD1E5
:1016A0006564BDE83140FFF7C9BA10B4144B00229D
:1016B0001C682CB943F8321003EBC20148601BE0F0
:1016C0009C680122002C1EBF02221C69002CF1D054
:1016D0009C690322002C1EBF04221C6A002CE9D046
:1016E0009C6A0522002C1EBF06221C6B002C1EBF0C
:1016F00007229C6B002CDDD010BC704704ED00E08D
:10170000843D002038B504460D46FFF77DFA606C35
:1017100010F1010F04BF00206064A06C10F1010FF4
:1017200004BF0020A064FFF789FAA06B20B9294606
:1017300004F12400FEF7ACFF2046BDE8324082E70A
:1017400062B38B0708D0521E11F8013B00F8013B31
:1017500000F024808B07F6D1830740F0208000BF83
:10176000103A07D330B4B1E83810103AA0E8381076
:10177000F9D230BC530724BFB1E80810A0E8081024
:1017800044BF51F8043B40F8043BD20724BF31F872
:10179000022B20F8022B44BF0B7803707047083AE5
:1017A00007D3B1E80810083A40F8043B40F804CBEE
:1017B000F7D25307E4E70000F8B504462078C007E5
:1017C00044D5DFF83C55A86800F00C00042807D089
:1017D000A86800F00C00082809D16868400206D506
:1017E0002868800332D5606880BB0120F2BD0020EC
:1017F000A87000F0CDFA064641F2893728688003C8
:1018000006D500F0C5FA801BB842F7D30320F2BD1D
:101810006068A870606860B100F0BAFA064628688F
:10182000800313D400F0B4FA801BB842F7D303202E
:10183000F2BD00F0ADFA06462868800306D500F038
:10184000A7FA801BB842F7D30320F2BD20788007A7
:101850001AD5DFF8AC54A86810F00C0007D0A868BF
:1018600000F00C00082827D16868400224D42868BA
:10187000800702D5E0680128B7D12868216920F0E7
:10188000F80040EAC10028602078000743D5DFF85F
:101890007454DFF87404616979B30121016000F0C8
:1018A00077FA06466868800735D400F071FA801B25
:1018B0006528F7D30320F2BDDFF85074E06870B1FB
:1018C0000120386000F064FA064628688007D4D406
:1018D00000F05EFA801B6528F7D30320F2BD386064
:1018E00000F056FA064628688007CDD500F050FA79
:1018F000801B6528F7D30320F2BD016000F048FA91
:1019000006466868800706D500F042FA801B652805
:10191000F7D30320F2BD207840074FD5DFF8E0531E
:101920004FF48071286C40F080502864286CDFF8F8
:10193000E05300F080500090009828680843286029
:1019400000F026FA06462868C00506D400F020FA02
:10195000801B6528F7D30320F2BDDFF8A8530020D1
:10196000287000F015FA064641F28937286880078A
:1019700006D500F00DFA801BB842F7D30320F2BD64
:10198000A0682870A06860B100F002FA06462868D6
:10199000800713D400F0FCF9801BB842F7D3032072
:1019A000F2BD00F0F5F906462868800706D500F07C
:1019B000EFF9801BB842F7D30320F2BDA0690028DD
:1019C00048D0DFF83C53A96801F00C0108293FF426
:1019D0000CAFDFF8387302282DD10020386600F0F4
:1019E000D7F906462868800106D500F0D1F9801B9A
:1019F0006528F7D30320F2BDE169226AA06A11438A
:101A0000626A801E41EA8211E26AC003000C41EA68
:101A1000026151EA004068600120386600F0B8F9C0
:101A200006462868800115D400F0B2F9801B6528AD
:101A3000F7D30320F2BD0020386600F0A9F906466E
:101A40002868800106D500F0A3F9801B6528F7D32C
:101A50000320F2BD0020F2BD2DE9F041DFF8B472A1
:101A6000044638680E4600F00F00B04274D23E7053
:101A7000386800F00F00B04240F0DD802078800729
:101A800007D5DFF87C52A868A16820F0F000084371
:101A9000A8602078C00740F1D0806068012804D198
:101AA000DFF85C120968890307E0022818BF0328E1
:101AB00006D1DFF84C120968890107D40120D5E06E
:101AC000DFF83C120968890740F1B580DFF8305231
:101AD000A968890850EA8100A86000F059F9064613
:101AE000606801280ED1A86800F00C00042800F0FE
:101AF000A48000F04DF9801B41F289318842F2D375
:101B00000320B3E002280ED1A86800F00C000828DA
:101B100000F0938000F03CF9801B41F2893188424B
:101B2000F2D30320A2E0032809D1A86800F030F91D
:101B3000801B41F289318842F7D3032096E0A868E0
:101B400010F00C0079D000F023F9801B41F28931AC
:101B50008842F4D3032089E02078800706D5684DB9
:101B6000A868A16820F0F0000843A8602078C007AA
:101B70005BD56068012803D161490968890306E0E3
:101B8000022818BF032805D15D490968890105D4D9
:101B900001206BE05A49096889074CD5584DA9685E
:101BA000890850EA8100A86000F0F2F88046606879
:101BB00001280ED1A86800F00C00042835D000F0F0
:101BC000E7F8A0EB080041F289318842F2D3032004
:101BD0004CE002280ED1A86800F00C00082824D0A0
:101BE00000F0D6F8A0EB080041F289318842F2D328
:101BF00003203BE003280AD1A86800F0C9F8A0EB55
:101C0000080041F289318842F6D303202EE0A8680B
:101C100010F00C0009D000F0BBF8A0EB080041F276
:101C200089318842F3D3032020E03E70386800F009
:101C30000F00B04201D0012018E02078400706D5FF
:101C40002F4DA868E16820F4E0500843A860207890
:101C5000000707D52A4DA868216920F4604040EAB2
:101C6000C100A8600F2000F081F80020BDE8F081DD
:101C70002A48416801F00C01042903D0082903D047
:101C800027487047274870470168026801F03F0104
:101C900052024CBF234A224AB2FBF1F102680068AB
:101CA000C2F388125143C0F30140401C4000B1FB15
:101CB000F0F0704780B5FFF7DBFF174A0FF26C03B7
:101CC00012681949C2F30312D25CD0400860086858
:101CD00002BD80B5FFF7EEFF0F490FF25002096811
:101CE000C1F3822108E080B5FFF7E4FF0A490FF253
:101CF0003C020968C1F34231895CC84002BD000062
:101D00000038024070380240800E474200004742CF
:101D100000700040003C0240083802400438024095
:101D20000024F40040787D01C43C00200000000045
:101D300001020304010203040607080980B51848DC
:101D40004FF4007201681143016001684FF4807222
:101D500041F480610160016811430160032000F0DB
:101D600025F80F2000F002F8002002BD10B504464F
:101D7000FFF7A0FF4FF47A71B0FBF1F000F04CF8E0
:101D8000002221464FF0FF3000F01DF8002010BD6A
:101D900004480068704704480068000C7047000061
:101DA000003C0240403E0020002004E023494FF662
:101DB000FF030A6800F007001A4042EA0020204AA8
:101DC00010430860704730B41C4B1B68C3F30223F8
:101DD000C3F10704052C28BF04241D1DEDB2072DF7
:101DE00034BF0023DB1E012505FA04F4641E2140E4
:101DF000994005FA03F35B1E1A40114309010028BC
:101E000006D5104A00F00F00801800F8041C01E00D
:101E10000D4A815430BC7047401EB0F1807F01D321
:101E2000012070470949F0224860094802700020EB
:101E30008860072008600020704700000CED00E07B
:101E40000000FA0518ED00E000E400E010E000E01A
:101E500023ED00E02DE9F84F024600230024DFF8CF
:101E6000A891DFF8A8A16A4F4FF00F0E01200D686E
:101E7000984000EA0508804540F0BA804D68022D80
:101E800018BF122D12D1DD0802EB850C03F00705F7
:101E9000DCF82060AD000EFA05FB26EA0B06D1F84F
:101EA00010B00BFA05F53543CCF820500326A640B8
:101EB00015686FEA060C0E790CEA050506F00306B4
:101EC000A640354315604D68012D18BF022D03D083
:101ED000112D18BF122D0FD19568CE680CEA05059B
:101EE000A64035439560556825EA00004D68C5F366
:101EF00000159D4028435060D0688D680CEA0000B2
:101F0000A5402843D0604868C00071D5386803F008
:101F1000030640F48040386038684FEA860C00F4CD
:101F200080400090009898085AF820500EFA0CF65D
:101F3000B543384EB24208BF002627D0364EB242D3
:101F400008BF012622D0354EB24208BF02261DD05E
:101F5000334EB24208BF032618D0324EB24208BFF9
:101F6000042613D0304EB24208BF05260ED02F4EA5
:101F7000B24208BF062609D02D4EB24208BF07263E
:101F800004D02C4EB2420CBF0826092606FA0CF6E5
:101F900035434AF82050D9F800506FEA080000EAAB
:101FA000050C4D68ED0348BF48EA0C0CC9F800C0A9
:101FB000D9F8045000EA050C4D68AD0348BF48EA63
:101FC0000C0CC9F804C0D9F8085000EA050C4D689B
:101FD000ED0248BF48EA0C0CC9F808C0D9F80C500B
:101FE00028404D68AD0248BF48EA0000C9F80C001F
:101FF0005B1CA41C102BFFF439AFBDE8F18F4269C4
:102000005140416170470000003C014008380140E8
:102010004438024000000240000402400008024030
:10202000000C024000100240001402400018024060
:10203000001C02400020024010B5040001D1012024
:1020400010BD94F8390008B984F83800022084F8EB
:1020500039002068C16821F40051C160204600F0B9
:1020600023F82068016921F490410161416921F060
:102070002A01FFE74161C16841F40051C1600020BD
:10208000E063012084F83900002010BD08B9012068
:10209000704700F2380102224A7000224A604A70FA
:1020A00080F8382000207047F8B5044620680169A0
:1020B000E26821F4405111430161C168324A114084
:1020C000A26811432269114362691143E269114315
:1020D000C1604169A26921F4407111434161E26923
:1020E0002A49B2F5004F1AD188421CBF28498842BC
:1020F0000AD1FFF7F8FD0646FFF7F5FD0546FFF7A5
:10210000F2FD61684F0022E0FFF7E3FD0646FFF7AE
:10211000E0FD0546FFF7DDFD61684F0017E08842EE
:102120001CBF1B49884208D1FFF7DDFD0646FFF7BB
:10213000DAFD0546FFF7D7FD07E0FFF7CAFD0646C3
:10214000FFF7C7FD0546FFF7C4FD61688F00192240
:10215000504355436421B0FBF7F002FB06F3B5FB97
:10216000F7F5B0FBF1F001FB10500001B3FBF7F302
:102170003230B3FBF1F3B0FBF1F000F00F00216857
:1021800040EA03108860F1BDF369FFFF00100140D1
:102190000014014080B5FFF7D1FD00F017F80020D2
:1021A00000F062F8012000F05FF8022000F05CF817
:1021B000032000F059F84FF4E13000F08DF80120D1
:1021C00000F0A2F8FEF714F9002002BD00B5234884
:1021D00093B0016841F080510160006800F08050C8
:1021E000009000981E48016841F480410160006839
:1021F00000F4804000900098012006900790022093
:102200000C904FF480000D9019200E904FF4A870A0
:102210000F90022010900720119006A8FFF7CCFA2B
:102220000F20019002200290002003904FF4A05054
:1022300004904FF480500590052101A8FFF70CFC95
:10224000FFF7A9FD41F20101884205D105484FF48D
:10225000807201681143016013B000BD4038024034
:1022600000700040003C024000B587B0002818BF55
:10227000012803D0022818BF032809D112490A688F
:1022800042F010020A60096801F010010091009903
:102290000FF23C010D4A31F8101001910121029119
:1022A00003910221049101A952F82000FFF7D2FD09
:1022B00007B000BD0FF21801044A31F8101052F8AF
:1022C0002000FFF79CBE000030380240C83C0020D0
:1022D000040008001000200010B5094C0949606096
:1022E0000020A060E0602061A0610C20606121609E
:1022F0002046FFF7CBFE2046BDE81040FFF79CBE0E
:10230000C43D00200010014000B585B000210391BC
:10231000029101910090002380220FF258010FF2E8
:102320000D00FDF731FF05B000BD000038B5FEF728
:102330006BFC0F4804680168491C0160FEF77EFCD5
:1023400040F24D10604300F24D104508FEF7E1F8F1
:102350000090294600A8FDF7FFFFE0B2FFF7AAFFB3
:10236000294600A8FDF7F8FFE0B2FFF7A3FFF0E76A
:102370003C3E00204C454478000000002DE9F0412F
:1023800000F10801026801EB82024368580840002E
:1023900002EB800000240025264601270EE0F445CC
:1023A00018BFAC4208D014F8018B0CF8018B761ED4
:1023B00036B2002EF3D50127F44513D1824201D164
:1023C000BDE8F08152F804CB5FEAC37E48BFCC443D
:1023D00052F804EBE644EFE70C686418091D51F865
:1023E000045B2D19AC42F7D05FB114F9016B0027E3
:1023F00005E00C686418091D51F8045B2D19AC4206
:10240000F7D0002ED4D514F8018BF445D4D00CF8B5
:10241000018B761C36B2002EF7D4CCE70E480F4A5B
:10242000016841F4700101600D48016841F001014B
:10243000016000218160016811400160094941602B
:10244000016821F4802101600021C16006484FF03D
:10245000006101607047000088ED00E0FFFFF6FEBC
:10246000003802401030002408ED00E010B50849A3
:1024700079441C31074C7C441A34A14206D0081D13
:102480000A68511888470146A142F8D110BD00BF23
:1024900008000000300000005FE6FFFF6001000060
:1024A000E43C002000000000D5FEFFFF0200000019
:1024B00002000000DC0100002001000000000020FC
:1024C000E43C00004EF68851CEF20001086840F46A
:1024D000700008604FF00070E1EE100A70470000D5
:1024E0000120C046002801D0FFF7C0FF0020FFF701
:1024F00051FE00F000F800F001B800000746384631
:1025000000F002F8FBE7000001491820ABBEFBE732
:102510002600020001488047014800471D240008AA
:1025200025250008C046C046FFF7CCFFFFF7D8FFBF
:10253000FFF7FEBFFFF7FEBFFFF7FEBFFFF7FEBFCF
:10254000FFF7FEBFFFF7FEBFFFF7FEBFFFF7FEBFBF
:10255000FFF7FEBFFFF7FEBFFFF7FEBFFFF7FEBFAF
:10256000FFF7FEBFFFF7FEBFFFF7FEBFFFF7FEBF9F
:10257000FFF7FEBFFFF7FEBFFFF7FEBFFFF7FEBF8F
:10258000FFF7FEBFFFF7FEBFFFF7FEBFFFF7FEBF7F
:10259000FFF7FEBFFFF7FEBFFFF7FEBFFFF7FEBF6F
:1025A000FFF7FEBFFFF7FEBFFFF7FEBFFFF7FEBF5F
:1025B000FFF7FEBFFFF7FEBFFFF7FEBFFFF7FEBF4F
:1025C000FFF7FEBFFFF7FEBFFFF7FEBFFFF7FEBF3F
:1025D000FFF7FEBFFFF7FEBFFFF7FEBFFFF7FEBF2F
:1025E000FFF7FEBFFFF7FEBFFFF7FEBFFFF7FEBF1F
:1025F000FFF7FEBFFFF7FEBFFFF7FEBFFFF7FEBF0F
:10260000FFF7FEBFFFF7FEBFFFF7FEBFFFF7FEBFFE
:10261000FFF7FEBFFFF7FEBFFFF7FEBFFFF7FEBFEE
:10262000FFF7FEBFFFF7FEBFFFF7FEBFFFF7FEBFDE
:10263000FFF7FEBFFFF7FEBFFFF7FEBFFFF7FEBFCE
:10264000FFF7FEBFFFF7FEBFFFF7FEBFFFF7FEBFBE
:10265000FFF7FEBFFFF7FEBFFFF7FEBFFFF7FEBFAE
:10266000FFF7FEBFFFF7FEBFFFF7FEBFFFF7FEBF9E
:10267000FFF7FEBFFFF7FEBFFFF7FEBFFFF7FEBF8E
:10268000FFF7FEBFFFF7FEBFFFF7FEBFFFF7FEBF7E
:10269000F00001F83B810081008100810081008110
:1026A0000081008100810081008100810081008122
:1026B0000081008100810081008100810081008112
:1026C0000081008100810081008100810081008102
:1026D00000810081008100810081008100810081F2
:1026E00000810081008100810081008100810081E2
:1026F00000810081008100810081008100810081D2
:1027000000810081008100810081008100810081C1
:1027100000810081008100810081008100810081B1
:1027200000810081008100810081008100810081A1
:102730000081008100810081008100810081008191
:102740000081008100810081008100810081008181
:102750000081008100810081008100810081008171
:102760000081008100810081008100810081008161
:102770000081008100810081008100810081008151
:10278000008100810081009500FCFFCC001B01024C
:102790000304060708090024F4000010024000109A
:1027A00002400010024000100240FC00FCAAFC00A5
:0400000508002525A5
:00000001FF
